{
  "_format": "hh-sol-artifact-1",
  "contractName": "Poll",
  "sourceName": "contracts/Poll.sol",
  "abi": [
    {
      "inputs": [],
      "stateMutability": "nonpayable",
      "type": "constructor"
    },
    {
      "anonymous": false,
      "inputs": [
        {
          "indexed": false,
          "internalType": "string",
          "name": "name",
          "type": "string"
        }
      ],
      "name": "PollCreated",
      "type": "event"
    },
    {
      "inputs": [
        {
          "internalType": "string",
          "name": "_name",
          "type": "string"
        },
        {
          "internalType": "string",
          "name": "_description",
          "type": "string"
        },
        {
          "internalType": "string[]",
          "name": "_candidateNames",
          "type": "string[]"
        },
        {
          "internalType": "address[]",
          "name": "_candidateAddresses",
          "type": "address[]"
        },
        {
          "internalType": "uint256",
          "name": "_startTime",
          "type": "uint256"
        },
        {
          "internalType": "uint256",
          "name": "_endTime",
          "type": "uint256"
        }
      ],
      "name": "createPoll",
      "outputs": [],
      "stateMutability": "nonpayable",
      "type": "function"
    },
    {
      "inputs": [],
      "name": "electionManager",
      "outputs": [
        {
          "internalType": "address",
          "name": "",
          "type": "address"
        }
      ],
      "stateMutability": "view",
      "type": "function"
    },
    {
      "inputs": [
        {
          "internalType": "string",
          "name": "_pollName",
          "type": "string"
        }
      ],
      "name": "getVotes",
      "outputs": [
        {
          "internalType": "uint256[]",
          "name": "",
          "type": "uint256[]"
        }
      ],
      "stateMutability": "view",
      "type": "function"
    },
    {
      "inputs": [
        {
          "internalType": "string",
          "name": "_name",
          "type": "string"
        }
      ],
      "name": "pollExists",
      "outputs": [
        {
          "internalType": "bool",
          "name": "",
          "type": "bool"
        }
      ],
      "stateMutability": "view",
      "type": "function"
    },
    {
      "inputs": [
        {
          "internalType": "string",
          "name": "",
          "type": "string"
        }
      ],
      "name": "polls",
      "outputs": [
        {
          "internalType": "uint256",
          "name": "startTime",
          "type": "uint256"
        },
        {
          "internalType": "uint256",
          "name": "endTime",
          "type": "uint256"
        },
        {
          "internalType": "uint256",
          "name": "voterCount",
          "type": "uint256"
        },
        {
          "internalType": "string",
          "name": "name",
          "type": "string"
        },
        {
          "internalType": "string",
          "name": "description",
          "type": "string"
        },
        {
          "internalType": "bool",
          "name": "privateVote",
          "type": "bool"
        },
        {
          "internalType": "bool",
          "name": "voteStarted",
          "type": "bool"
        },
        {
          "internalType": "bool",
          "name": "voteEnded",
          "type": "bool"
        }
      ],
      "stateMutability": "view",
      "type": "function"
    },
    {
      "inputs": [
        {
          "internalType": "string",
          "name": "_pollName",
          "type": "string"
        }
      ],
      "name": "tallyVotes",
      "outputs": [
        {
          "internalType": "uint256[]",
          "name": "",
          "type": "uint256[]"
        }
      ],
      "stateMutability": "view",
      "type": "function"
    },
    {
      "inputs": [
        {
          "internalType": "string",
          "name": "_pollName",
          "type": "string"
        },
        {
          "internalType": "address",
          "name": "_candidateAddress",
          "type": "address"
        }
      ],
      "name": "vote",
      "outputs": [],
      "stateMutability": "nonpayable",
      "type": "function"
    },
    {
      "inputs": [],
      "name": "voterCount",
      "outputs": [
        {
          "internalType": "uint256",
          "name": "",
          "type": "uint256"
        }
      ],
      "stateMutability": "view",
      "type": "function"
    },
    {
      "inputs": [
        {
          "internalType": "address",
          "name": "",
          "type": "address"
        }
      ],
      "name": "voters",
      "outputs": [
        {
          "internalType": "bool",
          "name": "voted",
          "type": "bool"
        }
      ],
      "stateMutability": "view",
      "type": "function"
    }
  ],
  "bytecode": "0x608060405234801561001057600080fd5b50336000806101000a81548173ffffffffffffffffffffffffffffffffffffffff021916908373ffffffffffffffffffffffffffffffffffffffff160217905550611d3a806100606000396000f3fe608060405234801561001057600080fd5b50600436106100935760003560e01c80637da32949116100665780637da329491461011e578063805265e51461013c5780638058316a1461016c5780638a947a87146101a3578063a3ec138d146101d357610093565b80630516278e1461009857806340603f82146100c857806342169e48146100e45780635a436c0614610102575b600080fd5b6100b260048036038101906100ad9190610e4c565b610203565b6040516100bf9190610eb0565b60405180910390f35b6100e260048036038101906100dd9190611108565b61023d565b005b6100ec610526565b6040516100f99190611214565b60405180910390f35b61011c6004803603810190610117919061122f565b61052c565b005b6101266108e1565b604051610133919061129a565b60405180910390f35b61015660048036038101906101519190610e4c565b610905565b6040516101639190611373565b60405180910390f35b61018660048036038101906101819190610e4c565b610a6a565b60405161019a989796959493929190611414565b60405180910390f35b6101bd60048036038101906101b89190610e4c565b610bff565b6040516101ca9190611373565b60405180910390f35b6101ed60048036038101906101e891906114a0565b610cc7565b6040516101fa9190610eb0565b60405180910390f35b6000806004836040516102169190611509565b908152602001604051809103902060040180546102329061154f565b905014159050919050565b61024686610203565b15610286576040517f08c379a000000000000000000000000000000000000000000000000000000000815260040161027d906115f2565b60405180910390fd5b4282116102c8576040517f08c379a00000000000000000000000000000000000000000000000000000000081526004016102bf90611684565b60405180910390fd5b81811161030a576040517f08c379a000000000000000000000000000000000000000000000000000000000815260040161030190611716565b60405180910390fd5b8560048760405161031b9190611509565b9081526020016040518091039020600401908161033891906118e2565b508460048760405161034a9190611509565b9081526020016040518091039020600501908161036791906118e2565b50816004876040516103799190611509565b9081526020016040518091039020600001819055508060048760405161039f9190611509565b90815260200160405180910390206001018190555060005b84518110156104e6576004876040516103d09190611509565b908152602001604051809103902060060160405180606001604052808784815181106103ff576103fe6119b4565b5b6020026020010151815260200186848151811061041f5761041e6119b4565b5b602002602001015173ffffffffffffffffffffffffffffffffffffffff16815260200160008152509080600181540180825580915050600190039060005260206000209060030201600090919091909150600082015181600001908161048591906118e2565b5060208201518160010160006101000a81548173ffffffffffffffffffffffffffffffffffffffff021916908373ffffffffffffffffffffffffffffffffffffffff16021790555060408201518160020155505080806001019150506103b7565b507f9bf8745d989aef219097b36114b7e27d7f74b56a6e55ab898a6c4e4a0489f7588660405161051691906119e3565b60405180910390a1505050505050565b60025481565b61053582610203565b610574576040517f08c379a000000000000000000000000000000000000000000000000000000000815260040161056b90611a51565b60405180910390fd5b6004826040516105849190611509565b9081526020016040518091039020600001544210156105d8576040517f08c379a00000000000000000000000000000000000000000000000000000000081526004016105cf90611abd565b60405180910390fd5b6004826040516105e89190611509565b908152602001604051809103902060010154421061063b576040517f08c379a000000000000000000000000000000000000000000000000000000000815260040161063290611b29565b60405180910390fd5b60048260405161064b9190611509565b908152602001604051809103902060020160003373ffffffffffffffffffffffffffffffffffffffff1673ffffffffffffffffffffffffffffffffffffffff16815260200190815260200160002060000160009054906101000a900460ff16156106ea576040517f08c379a00000000000000000000000000000000000000000000000000000000081526004016106e190611b95565b60405180910390fd5b6000805b6004846040516106fe9190611509565b90815260200160405180910390206006018054905081101561089b578273ffffffffffffffffffffffffffffffffffffffff166004856040516107419190611509565b90815260200160405180910390206006018281548110610764576107636119b4565b5b906000526020600020906003020160010160009054906101000a900473ffffffffffffffffffffffffffffffffffffffff1673ffffffffffffffffffffffffffffffffffffffff160361088e576001915060016004856040516107c79190611509565b908152602001604051809103902060020160003373ffffffffffffffffffffffffffffffffffffffff1673ffffffffffffffffffffffffffffffffffffffff16815260200190815260200160002060000160006101000a81548160ff02191690831515021790555060048460405161083f9190611509565b90815260200160405180910390206006018181548110610862576108616119b4565b5b9060005260206000209060030201600201600081548092919061088490611be4565b919050555061089b565b80806001019150506106ee565b50806108dc576040517f08c379a00000000000000000000000000000000000000000000000000000000081526004016108d390611c78565b60405180910390fd5b505050565b60008054906101000a900473ffffffffffffffffffffffffffffffffffffffff1681565b606061091082610203565b61094f576040517f08c379a000000000000000000000000000000000000000000000000000000000815260040161094690611a51565b60405180910390fd5b60006004836040516109619190611509565b90815260200160405180910390206006018054905067ffffffffffffffff81111561098f5761098e610d21565b5b6040519080825280602002602001820160405280156109bd5781602001602082028036833780820191505090505b50905060005b6004846040516109d39190611509565b908152602001604051809103902060060180549050811015610a60576004846040516109ff9190611509565b90815260200160405180910390206006018181548110610a2257610a216119b4565b5b906000526020600020906003020160020154828281518110610a4757610a466119b4565b5b60200260200101818152505080806001019150506109c3565b5080915050919050565b600481805160208101820180518482526020830160208501208183528095505050505050600091509050806000015490806001015490806003015490806004018054610ab59061154f565b80601f0160208091040260200160405190810160405280929190818152602001828054610ae19061154f565b8015610b2e5780601f10610b0357610100808354040283529160200191610b2e565b820191906000526020600020905b815481529060010190602001808311610b1157829003601f168201915b505050505090806005018054610b439061154f565b80601f0160208091040260200160405190810160405280929190818152602001828054610b6f9061154f565b8015610bbc5780601f10610b9157610100808354040283529160200191610bbc565b820191906000526020600020905b815481529060010190602001808311610b9f57829003601f168201915b5050505050908060070160009054906101000a900460ff16908060070160019054906101000a900460ff16908060070160029054906101000a900460ff16905088565b6060610c0a82610203565b610c49576040517f08c379a0000000000000000000000000000000000000000000000000000000008152600401610c4090611a51565b60405180910390fd5b600482604051610c599190611509565b908152602001604051809103902060070160029054906101000a900460ff16610cb7576040517f08c379a0000000000000000000000000000000000000000000000000000000008152600401610cae90611ce4565b60405180910390fd5b610cc082610905565b9050919050565b60016020528060005260406000206000915090508060000160009054906101000a900460ff16905081565b6000604051905090565b600080fd5b600080fd5b600080fd5b600080fd5b6000601f19601f8301169050919050565b7f4e487b7100000000000000000000000000000000000000000000000000000000600052604160045260246000fd5b610d5982610d10565b810181811067ffffffffffffffff82111715610d7857610d77610d21565b5b80604052505050565b6000610d8b610cf2565b9050610d978282610d50565b919050565b600067ffffffffffffffff821115610db757610db6610d21565b5b610dc082610d10565b9050602081019050919050565b82818337600083830152505050565b6000610def610dea84610d9c565b610d81565b905082815260208101848484011115610e0b57610e0a610d0b565b5b610e16848285610dcd565b509392505050565b600082601f830112610e3357610e32610d06565b5b8135610e43848260208601610ddc565b91505092915050565b600060208284031215610e6257610e61610cfc565b5b600082013567ffffffffffffffff811115610e8057610e7f610d01565b5b610e8c84828501610e1e565b91505092915050565b60008115159050919050565b610eaa81610e95565b82525050565b6000602082019050610ec56000830184610ea1565b92915050565b600067ffffffffffffffff821115610ee657610ee5610d21565b5b602082029050602081019050919050565b600080fd5b6000610f0f610f0a84610ecb565b610d81565b90508083825260208201905060208402830185811115610f3257610f31610ef7565b5b835b81811015610f7957803567ffffffffffffffff811115610f5757610f56610d06565b5b808601610f648982610e1e565b85526020850194505050602081019050610f34565b5050509392505050565b600082601f830112610f9857610f97610d06565b5b8135610fa8848260208601610efc565b91505092915050565b600067ffffffffffffffff821115610fcc57610fcb610d21565b5b602082029050602081019050919050565b600073ffffffffffffffffffffffffffffffffffffffff82169050919050565b600061100882610fdd565b9050919050565b61101881610ffd565b811461102357600080fd5b50565b6000813590506110358161100f565b92915050565b600061104e61104984610fb1565b610d81565b9050808382526020820190506020840283018581111561107157611070610ef7565b5b835b8181101561109a57806110868882611026565b845260208401935050602081019050611073565b5050509392505050565b600082601f8301126110b9576110b8610d06565b5b81356110c984826020860161103b565b91505092915050565b6000819050919050565b6110e5816110d2565b81146110f057600080fd5b50565b600081359050611102816110dc565b92915050565b60008060008060008060c0878903121561112557611124610cfc565b5b600087013567ffffffffffffffff81111561114357611142610d01565b5b61114f89828a01610e1e565b965050602087013567ffffffffffffffff8111156111705761116f610d01565b5b61117c89828a01610e1e565b955050604087013567ffffffffffffffff81111561119d5761119c610d01565b5b6111a989828a01610f83565b945050606087013567ffffffffffffffff8111156111ca576111c9610d01565b5b6111d689828a016110a4565b93505060806111e789828a016110f3565b92505060a06111f889828a016110f3565b9150509295509295509295565b61120e816110d2565b82525050565b60006020820190506112296000830184611205565b92915050565b6000806040838503121561124657611245610cfc565b5b600083013567ffffffffffffffff81111561126457611263610d01565b5b61127085828601610e1e565b925050602061128185828601611026565b9150509250929050565b61129481610ffd565b82525050565b60006020820190506112af600083018461128b565b92915050565b600081519050919050565b600082825260208201905092915050565b6000819050602082019050919050565b6112ea816110d2565b82525050565b60006112fc83836112e1565b60208301905092915050565b6000602082019050919050565b6000611320826112b5565b61132a81856112c0565b9350611335836112d1565b8060005b8381101561136657815161134d88826112f0565b975061135883611308565b925050600181019050611339565b5085935050505092915050565b6000602082019050818103600083015261138d8184611315565b905092915050565b600081519050919050565b600082825260208201905092915050565b60005b838110156113cf5780820151818401526020810190506113b4565b60008484015250505050565b60006113e682611395565b6113f081856113a0565b93506114008185602086016113b1565b61140981610d10565b840191505092915050565b60006101008201905061142a600083018b611205565b611437602083018a611205565b6114446040830189611205565b818103606083015261145681886113db565b9050818103608083015261146a81876113db565b905061147960a0830186610ea1565b61148660c0830185610ea1565b61149360e0830184610ea1565b9998505050505050505050565b6000602082840312156114b6576114b5610cfc565b5b60006114c484828501611026565b91505092915050565b600081905092915050565b60006114e382611395565b6114ed81856114cd565b93506114fd8185602086016113b1565b80840191505092915050565b600061151582846114d8565b915081905092915050565b7f4e487b7100000000000000000000000000000000000000000000000000000000600052602260045260246000fd5b6000600282049050600182168061156757607f821691505b60208210810361157a57611579611520565b5b50919050565b7f506f6c6c2077697468207468652073616d65206e616d6520616c72656164792060008201527f6578697374732e00000000000000000000000000000000000000000000000000602082015250565b60006115dc6027836113a0565b91506115e782611580565b604082019050919050565b6000602082019050818103600083015261160b816115cf565b9050919050565b7f53746172742074696d65206d75737420626520696e207468652066757475726560008201527f2e00000000000000000000000000000000000000000000000000000000000000602082015250565b600061166e6021836113a0565b915061167982611612565b604082019050919050565b6000602082019050818103600083015261169d81611661565b9050919050565b7f456e642074696d65206d7573742062652061667465722073746172742074696d60008201527f652e000000000000000000000000000000000000000000000000000000000000602082015250565b60006117006022836113a0565b915061170b826116a4565b604082019050919050565b6000602082019050818103600083015261172f816116f3565b9050919050565b60008190508160005260206000209050919050565b60006020601f8301049050919050565b600082821b905092915050565b6000600883026117987fffffffffffffffffffffffffffffffffffffffffffffffffffffffffffffffff8261175b565b6117a2868361175b565b95508019841693508086168417925050509392505050565b6000819050919050565b60006117df6117da6117d5846110d2565b6117ba565b6110d2565b9050919050565b6000819050919050565b6117f9836117c4565b61180d611805826117e6565b848454611768565b825550505050565b600090565b611822611815565b61182d8184846117f0565b505050565b5b818110156118515761184660008261181a565b600181019050611833565b5050565b601f8211156118965761186781611736565b6118708461174b565b8101602085101561187f578190505b61189361188b8561174b565b830182611832565b50505b505050565b600082821c905092915050565b60006118b96000198460080261189b565b1980831691505092915050565b60006118d283836118a8565b9150826002028217905092915050565b6118eb82611395565b67ffffffffffffffff81111561190457611903610d21565b5b61190e825461154f565b611919828285611855565b600060209050601f83116001811461194c576000841561193a578287015190505b61194485826118c6565b8655506119ac565b601f19841661195a86611736565b60005b828110156119825784890151825560018201915060208501945060208101905061195d565b8683101561199f578489015161199b601f8916826118a8565b8355505b6001600288020188555050505b505050505050565b7f4e487b7100000000000000000000000000000000000000000000000000000000600052603260045260246000fd5b600060208201905081810360008301526119fd81846113db565b905092915050565b7f506f6c6c20646f6573206e6f742065786973742e000000000000000000000000600082015250565b6000611a3b6014836113a0565b9150611a4682611a05565b602082019050919050565b60006020820190508181036000830152611a6a81611a2e565b9050919050565b7f566f74696e6720686173206e6f742073746172746564207965742e0000000000600082015250565b6000611aa7601b836113a0565b9150611ab282611a71565b602082019050919050565b60006020820190508181036000830152611ad681611a9a565b9050919050565b7f566f74696e672068617320616c726561647920656e6465642e00000000000000600082015250565b6000611b136019836113a0565b9150611b1e82611add565b602082019050919050565b60006020820190508181036000830152611b4281611b06565b9050919050565b7f596f75206861766520616c726561647920766f7465642e000000000000000000600082015250565b6000611b7f6017836113a0565b9150611b8a82611b49565b602082019050919050565b60006020820190508181036000830152611bae81611b72565b9050919050565b7f4e487b7100000000000000000000000000000000000000000000000000000000600052601160045260246000fd5b6000611bef826110d2565b91507fffffffffffffffffffffffffffffffffffffffffffffffffffffffffffffffff8203611c2157611c20611bb5565b5b600182019050919050565b7f43616e646964617465206e6f7420666f756e642e000000000000000000000000600082015250565b6000611c626014836113a0565b9150611c6d82611c2c565b602082019050919050565b60006020820190508181036000830152611c9181611c55565b9050919050565b7f566f746520686173206e6f7420656e646564207965742e000000000000000000600082015250565b6000611cce6017836113a0565b9150611cd982611c98565b602082019050919050565b60006020820190508181036000830152611cfd81611cc1565b905091905056fea2646970667358221220250814e5db65c0ee788bca909e23c897f9524f1da003924feb783ff4a78ed3ed64736f6c63430008180033",
  "linkReferences": {},
  "deployedLinkReferences": {}
}