{
  "_format": "hh-sol-artifact-1",
  "contractName": "Poll",
  "sourceName": "contracts/Poll.sol",
  "abi": [
    {
      "inputs": [],
      "stateMutability": "nonpayable",
      "type": "constructor"
    },
    {
      "anonymous": false,
      "inputs": [
        {
          "indexed": false,
          "internalType": "string",
          "name": "name",
          "type": "string"
        }
      ],
      "name": "PollCreated",
      "type": "event"
    },
    {
      "inputs": [
        {
          "internalType": "string",
          "name": "_name",
          "type": "string"
        },
        {
          "internalType": "string",
          "name": "_description",
          "type": "string"
        },
        {
          "internalType": "string[]",
          "name": "_candidateNames",
          "type": "string[]"
        },
        {
          "internalType": "address[]",
          "name": "_candidateAddresses",
          "type": "address[]"
        },
        {
          "internalType": "uint256",
          "name": "_startTime",
          "type": "uint256"
        },
        {
          "internalType": "uint256",
          "name": "_endTime",
          "type": "uint256"
        }
      ],
      "name": "createPoll",
      "outputs": [],
      "stateMutability": "nonpayable",
      "type": "function"
    },
    {
      "inputs": [],
      "name": "electionManager",
      "outputs": [
        {
          "internalType": "address",
          "name": "",
          "type": "address"
        }
      ],
      "stateMutability": "view",
      "type": "function"
    },
    {
      "inputs": [
        {
          "internalType": "string",
          "name": "_pollName",
          "type": "string"
        }
      ],
      "name": "getVotes",
      "outputs": [
        {
          "internalType": "uint256[]",
          "name": "",
          "type": "uint256[]"
        }
      ],
      "stateMutability": "view",
      "type": "function"
    },
    {
      "inputs": [
        {
          "internalType": "string",
          "name": "",
          "type": "string"
        }
      ],
      "name": "polls",
      "outputs": [
        {
          "internalType": "uint256",
          "name": "startTime",
          "type": "uint256"
        },
        {
          "internalType": "uint256",
          "name": "endTime",
          "type": "uint256"
        },
        {
          "internalType": "uint256",
          "name": "voterCount",
          "type": "uint256"
        },
        {
          "internalType": "string",
          "name": "name",
          "type": "string"
        },
        {
          "internalType": "string",
          "name": "description",
          "type": "string"
        },
        {
          "internalType": "bool",
          "name": "privateVote",
          "type": "bool"
        },
        {
          "internalType": "bool",
          "name": "voteStarted",
          "type": "bool"
        },
        {
          "internalType": "bool",
          "name": "voteEnded",
          "type": "bool"
        }
      ],
      "stateMutability": "view",
      "type": "function"
    },
    {
      "inputs": [
        {
          "internalType": "string",
          "name": "_pollName",
          "type": "string"
        }
      ],
      "name": "tallyVotes",
      "outputs": [
        {
          "internalType": "uint256[]",
          "name": "",
          "type": "uint256[]"
        }
      ],
      "stateMutability": "view",
      "type": "function"
    },
    {
      "inputs": [
        {
          "internalType": "string",
          "name": "_pollName",
          "type": "string"
        },
        {
          "internalType": "uint256",
          "name": "_candidateIndex",
          "type": "uint256"
        }
      ],
      "name": "vote",
      "outputs": [],
      "stateMutability": "nonpayable",
      "type": "function"
    },
    {
      "inputs": [],
      "name": "voterCount",
      "outputs": [
        {
          "internalType": "uint256",
          "name": "",
          "type": "uint256"
        }
      ],
      "stateMutability": "view",
      "type": "function"
    },
    {
      "inputs": [
        {
          "internalType": "address",
          "name": "",
          "type": "address"
        }
      ],
      "name": "voters",
      "outputs": [
        {
          "internalType": "bool",
          "name": "voted",
          "type": "bool"
        }
      ],
      "stateMutability": "view",
      "type": "function"
    }
  ],
  "bytecode": "0x608060405234801561001057600080fd5b50336000806101000a81548173ffffffffffffffffffffffffffffffffffffffff021916908373ffffffffffffffffffffffffffffffffffffffff160217905550611ce0806100606000396000f3fe608060405234801561001057600080fd5b50600436106100885760003560e01c80638058316a1161005b5780638058316a146101155780638a947a871461014c578063a3ec138d1461017c578063a6385803146101ac57610088565b806340603f821461008d57806342169e48146100a95780637da32949146100c7578063805265e5146100e5575b600080fd5b6100a760048036038101906100a2919061102f565b6101c8565b005b6100b1610535565b6040516100be919061113b565b60405180910390f35b6100cf61053b565b6040516100dc9190611165565b60405180910390f35b6100ff60048036038101906100fa9190611180565b61055f565b60405161010c9190611287565b60405180910390f35b61012f600480360381019061012a9190611180565b6106c4565b604051610143989796959493929190611343565b60405180910390f35b61016660048036038101906101619190611180565b610859565b6040516101739190611287565b60405180910390f35b610196600480360381019061019191906113cf565b610921565b6040516101a391906113fc565b60405180910390f35b6101c660048036038101906101c19190611417565b61094c565b005b6101d186610c5e565b15610211576040517f08c379a0000000000000000000000000000000000000000000000000000000008152600401610208906114e5565b60405180910390fd5b428211610253576040517f08c379a000000000000000000000000000000000000000000000000000000000815260040161024a90611577565b60405180910390fd5b818111610295576040517f08c379a000000000000000000000000000000000000000000000000000000000815260040161028c90611609565b60405180910390fd5b856004876040516102a69190611665565b908152602001604051809103902060040190816102c39190611888565b50846004876040516102d59190611665565b908152602001604051809103902060050190816102f29190611888565b50816004876040516103049190611665565b9081526020016040518091039020600001819055508060048760405161032a9190611665565b9081526020016040518091039020600101819055508142106103815760016004876040516103589190611665565b908152602001604051809103902060070160016101000a81548160ff0219169083151502179055505b8042106103c357600160048760405161039a9190611665565b908152602001604051809103902060070160026101000a81548160ff0219169083151502179055505b60005b84518110156104f5576004876040516103df9190611665565b9081526020016040518091039020600601604051806060016040528087848151811061040e5761040d61195a565b5b6020026020010151815260200186848151811061042e5761042d61195a565b5b602002602001015173ffffffffffffffffffffffffffffffffffffffff1681526020016000815250908060018154018082558091505060019003906000526020600020906003020160009091909190915060008201518160000190816104949190611888565b5060208201518160010160006101000a81548173ffffffffffffffffffffffffffffffffffffffff021916908373ffffffffffffffffffffffffffffffffffffffff16021790555060408201518160020155505080806001019150506103c6565b507f9bf8745d989aef219097b36114b7e27d7f74b56a6e55ab898a6c4e4a0489f758866040516105259190611989565b60405180910390a1505050505050565b60025481565b60008054906101000a900473ffffffffffffffffffffffffffffffffffffffff1681565b606061056a82610c5e565b6105a9576040517f08c379a00000000000000000000000000000000000000000000000000000000081526004016105a0906119f7565b60405180910390fd5b60006004836040516105bb9190611665565b90815260200160405180910390206006018054905067ffffffffffffffff8111156105e9576105e8610cc7565b5b6040519080825280602002602001820160405280156106175781602001602082028036833780820191505090505b50905060005b60048460405161062d9190611665565b9081526020016040518091039020600601805490508110156106ba576004846040516106599190611665565b9081526020016040518091039020600601818154811061067c5761067b61195a565b5b9060005260206000209060030201600201548282815181106106a1576106a061195a565b5b602002602001018181525050808060010191505061061d565b5080915050919050565b60048180516020810182018051848252602083016020850120818352809550505050505060009150905080600001549080600101549080600301549080600401805461070f906116ab565b80601f016020809104026020016040519081016040528092919081815260200182805461073b906116ab565b80156107885780601f1061075d57610100808354040283529160200191610788565b820191906000526020600020905b81548152906001019060200180831161076b57829003601f168201915b50505050509080600501805461079d906116ab565b80601f01602080910402602001604051908101604052809291908181526020018280546107c9906116ab565b80156108165780601f106107eb57610100808354040283529160200191610816565b820191906000526020600020905b8154815290600101906020018083116107f957829003601f168201915b5050505050908060070160009054906101000a900460ff16908060070160019054906101000a900460ff16908060070160029054906101000a900460ff16905088565b606061086482610c5e565b6108a3576040517f08c379a000000000000000000000000000000000000000000000000000000000815260040161089a906119f7565b60405180910390fd5b6004826040516108b39190611665565b908152602001604051809103902060070160029054906101000a900460ff16610911576040517f08c379a000000000000000000000000000000000000000000000000000000000815260040161090890611a63565b60405180910390fd5b61091a8261055f565b9050919050565b60016020528060005260406000206000915090508060000160009054906101000a900460ff16905081565b61095582610c5e565b610994576040517f08c379a000000000000000000000000000000000000000000000000000000000815260040161098b906119f7565b60405180910390fd5b6004826040516109a49190611665565b908152602001604051809103902060070160019054906101000a900460ff16610a02576040517f08c379a00000000000000000000000000000000000000000000000000000000081526004016109f990611acf565b60405180910390fd5b600482604051610a129190611665565b908152602001604051809103902060070160029054906101000a900460ff1615610a71576040517f08c379a0000000000000000000000000000000000000000000000000000000008152600401610a6890611b3b565b60405180910390fd5b600482604051610a819190611665565b908152602001604051809103902060020160003373ffffffffffffffffffffffffffffffffffffffff1673ffffffffffffffffffffffffffffffffffffffff16815260200190815260200160002060000160009054906101000a900460ff1615610b20576040517f08c379a0000000000000000000000000000000000000000000000000000000008152600401610b1790611ba7565b60405180910390fd5b600482604051610b309190611665565b9081526020016040518091039020600601805490508110610b86576040517f08c379a0000000000000000000000000000000000000000000000000000000008152600401610b7d90611c13565b60405180910390fd5b6001600483604051610b989190611665565b908152602001604051809103902060020160003373ffffffffffffffffffffffffffffffffffffffff1673ffffffffffffffffffffffffffffffffffffffff16815260200190815260200160002060000160006101000a81548160ff021916908315150217905550600482604051610c109190611665565b90815260200160405180910390206006018181548110610c3357610c3261195a565b5b90600052602060002090600302016002016000815480929190610c5590611c62565b91905055505050565b600080600483604051610c719190611665565b90815260200160405180910390206004018054610c8d906116ab565b905014159050919050565b6000604051905090565b600080fd5b600080fd5b600080fd5b600080fd5b6000601f19601f8301169050919050565b7f4e487b7100000000000000000000000000000000000000000000000000000000600052604160045260246000fd5b610cff82610cb6565b810181811067ffffffffffffffff82111715610d1e57610d1d610cc7565b5b80604052505050565b6000610d31610c98565b9050610d3d8282610cf6565b919050565b600067ffffffffffffffff821115610d5d57610d5c610cc7565b5b610d6682610cb6565b9050602081019050919050565b82818337600083830152505050565b6000610d95610d9084610d42565b610d27565b905082815260208101848484011115610db157610db0610cb1565b5b610dbc848285610d73565b509392505050565b600082601f830112610dd957610dd8610cac565b5b8135610de9848260208601610d82565b91505092915050565b600067ffffffffffffffff821115610e0d57610e0c610cc7565b5b602082029050602081019050919050565b600080fd5b6000610e36610e3184610df2565b610d27565b90508083825260208201905060208402830185811115610e5957610e58610e1e565b5b835b81811015610ea057803567ffffffffffffffff811115610e7e57610e7d610cac565b5b808601610e8b8982610dc4565b85526020850194505050602081019050610e5b565b5050509392505050565b600082601f830112610ebf57610ebe610cac565b5b8135610ecf848260208601610e23565b91505092915050565b600067ffffffffffffffff821115610ef357610ef2610cc7565b5b602082029050602081019050919050565b600073ffffffffffffffffffffffffffffffffffffffff82169050919050565b6000610f2f82610f04565b9050919050565b610f3f81610f24565b8114610f4a57600080fd5b50565b600081359050610f5c81610f36565b92915050565b6000610f75610f7084610ed8565b610d27565b90508083825260208201905060208402830185811115610f9857610f97610e1e565b5b835b81811015610fc15780610fad8882610f4d565b845260208401935050602081019050610f9a565b5050509392505050565b600082601f830112610fe057610fdf610cac565b5b8135610ff0848260208601610f62565b91505092915050565b6000819050919050565b61100c81610ff9565b811461101757600080fd5b50565b60008135905061102981611003565b92915050565b60008060008060008060c0878903121561104c5761104b610ca2565b5b600087013567ffffffffffffffff81111561106a57611069610ca7565b5b61107689828a01610dc4565b965050602087013567ffffffffffffffff81111561109757611096610ca7565b5b6110a389828a01610dc4565b955050604087013567ffffffffffffffff8111156110c4576110c3610ca7565b5b6110d089828a01610eaa565b945050606087013567ffffffffffffffff8111156110f1576110f0610ca7565b5b6110fd89828a01610fcb565b935050608061110e89828a0161101a565b92505060a061111f89828a0161101a565b9150509295509295509295565b61113581610ff9565b82525050565b6000602082019050611150600083018461112c565b92915050565b61115f81610f24565b82525050565b600060208201905061117a6000830184611156565b92915050565b60006020828403121561119657611195610ca2565b5b600082013567ffffffffffffffff8111156111b4576111b3610ca7565b5b6111c084828501610dc4565b91505092915050565b600081519050919050565b600082825260208201905092915050565b6000819050602082019050919050565b6111fe81610ff9565b82525050565b600061121083836111f5565b60208301905092915050565b6000602082019050919050565b6000611234826111c9565b61123e81856111d4565b9350611249836111e5565b8060005b8381101561127a5781516112618882611204565b975061126c8361121c565b92505060018101905061124d565b5085935050505092915050565b600060208201905081810360008301526112a18184611229565b905092915050565b600081519050919050565b600082825260208201905092915050565b60005b838110156112e35780820151818401526020810190506112c8565b60008484015250505050565b60006112fa826112a9565b61130481856112b4565b93506113148185602086016112c5565b61131d81610cb6565b840191505092915050565b60008115159050919050565b61133d81611328565b82525050565b600061010082019050611359600083018b61112c565b611366602083018a61112c565b611373604083018961112c565b818103606083015261138581886112ef565b9050818103608083015261139981876112ef565b90506113a860a0830186611334565b6113b560c0830185611334565b6113c260e0830184611334565b9998505050505050505050565b6000602082840312156113e5576113e4610ca2565b5b60006113f384828501610f4d565b91505092915050565b60006020820190506114116000830184611334565b92915050565b6000806040838503121561142e5761142d610ca2565b5b600083013567ffffffffffffffff81111561144c5761144b610ca7565b5b61145885828601610dc4565b92505060206114698582860161101a565b9150509250929050565b7f506f6c6c2077697468207468652073616d65206e616d6520616c72656164792060008201527f6578697374732e00000000000000000000000000000000000000000000000000602082015250565b60006114cf6027836112b4565b91506114da82611473565b604082019050919050565b600060208201905081810360008301526114fe816114c2565b9050919050565b7f53746172742074696d65206d75737420626520696e207468652066757475726560008201527f2e00000000000000000000000000000000000000000000000000000000000000602082015250565b60006115616021836112b4565b915061156c82611505565b604082019050919050565b6000602082019050818103600083015261159081611554565b9050919050565b7f456e642074696d65206d7573742062652061667465722073746172742074696d60008201527f652e000000000000000000000000000000000000000000000000000000000000602082015250565b60006115f36022836112b4565b91506115fe82611597565b604082019050919050565b60006020820190508181036000830152611622816115e6565b9050919050565b600081905092915050565b600061163f826112a9565b6116498185611629565b93506116598185602086016112c5565b80840191505092915050565b60006116718284611634565b915081905092915050565b7f4e487b7100000000000000000000000000000000000000000000000000000000600052602260045260246000fd5b600060028204905060018216806116c357607f821691505b6020821081036116d6576116d561167c565b5b50919050565b60008190508160005260206000209050919050565b60006020601f8301049050919050565b600082821b905092915050565b60006008830261173e7fffffffffffffffffffffffffffffffffffffffffffffffffffffffffffffffff82611701565b6117488683611701565b95508019841693508086168417925050509392505050565b6000819050919050565b600061178561178061177b84610ff9565b611760565b610ff9565b9050919050565b6000819050919050565b61179f8361176a565b6117b36117ab8261178c565b84845461170e565b825550505050565b600090565b6117c86117bb565b6117d3818484611796565b505050565b5b818110156117f7576117ec6000826117c0565b6001810190506117d9565b5050565b601f82111561183c5761180d816116dc565b611816846116f1565b81016020851015611825578190505b611839611831856116f1565b8301826117d8565b50505b505050565b600082821c905092915050565b600061185f60001984600802611841565b1980831691505092915050565b6000611878838361184e565b9150826002028217905092915050565b611891826112a9565b67ffffffffffffffff8111156118aa576118a9610cc7565b5b6118b482546116ab565b6118bf8282856117fb565b600060209050601f8311600181146118f257600084156118e0578287015190505b6118ea858261186c565b865550611952565b601f198416611900866116dc565b60005b8281101561192857848901518255600182019150602085019450602081019050611903565b868310156119455784890151611941601f89168261184e565b8355505b6001600288020188555050505b505050505050565b7f4e487b7100000000000000000000000000000000000000000000000000000000600052603260045260246000fd5b600060208201905081810360008301526119a381846112ef565b905092915050565b7f506f6c6c20646f6573206e6f742065786973742e000000000000000000000000600082015250565b60006119e16014836112b4565b91506119ec826119ab565b602082019050919050565b60006020820190508181036000830152611a10816119d4565b9050919050565b7f566f746520686173206e6f7420656e646564207965742e000000000000000000600082015250565b6000611a4d6017836112b4565b9150611a5882611a17565b602082019050919050565b60006020820190508181036000830152611a7c81611a40565b9050919050565b7f566f746520686173206e6f742073746172746564207965742e00000000000000600082015250565b6000611ab96019836112b4565b9150611ac482611a83565b602082019050919050565b60006020820190508181036000830152611ae881611aac565b9050919050565b7f566f74652068617320616c726561647920656e6465642e000000000000000000600082015250565b6000611b256017836112b4565b9150611b3082611aef565b602082019050919050565b60006020820190508181036000830152611b5481611b18565b9050919050565b7f596f75206861766520616c726561647920766f7465642e000000000000000000600082015250565b6000611b916017836112b4565b9150611b9c82611b5b565b602082019050919050565b60006020820190508181036000830152611bc081611b84565b9050919050565b7f496e76616c69642063616e64696461746520696e6465782e0000000000000000600082015250565b6000611bfd6018836112b4565b9150611c0882611bc7565b602082019050919050565b60006020820190508181036000830152611c2c81611bf0565b9050919050565b7f4e487b7100000000000000000000000000000000000000000000000000000000600052601160045260246000fd5b6000611c6d82610ff9565b91507fffffffffffffffffffffffffffffffffffffffffffffffffffffffffffffffff8203611c9f57611c9e611c33565b5b60018201905091905056fea2646970667358221220db6ac7986fc38098e61650a565f6813887bb1cba1ef3b7435a8602ae465166ac64736f6c63430008180033",
  "linkReferences": {},
  "deployedLinkReferences": {}
}