{
  "_format": "hh-sol-artifact-1",
  "contractName": "Poll",
  "sourceName": "contracts/Poll.sol",
  "abi": [
    {
      "inputs": [],
      "stateMutability": "nonpayable",
      "type": "constructor"
    },
    {
      "anonymous": false,
      "inputs": [
        {
          "indexed": false,
          "internalType": "string",
          "name": "name",
          "type": "string"
        }
      ],
      "name": "PollCreated",
      "type": "event"
    },
    {
      "inputs": [
        {
          "internalType": "string",
          "name": "_name",
          "type": "string"
        },
        {
          "internalType": "string",
          "name": "_description",
          "type": "string"
        },
        {
          "internalType": "string[]",
          "name": "_candidateNames",
          "type": "string[]"
        },
        {
          "internalType": "address[]",
          "name": "_candidateAddresses",
          "type": "address[]"
        },
        {
          "internalType": "uint256",
          "name": "_startTime",
          "type": "uint256"
        },
        {
          "internalType": "uint256",
          "name": "_endTime",
          "type": "uint256"
        }
      ],
      "name": "createPoll",
      "outputs": [],
      "stateMutability": "nonpayable",
      "type": "function"
    },
    {
      "inputs": [],
      "name": "electionManager",
      "outputs": [
        {
          "internalType": "address",
          "name": "",
          "type": "address"
        }
      ],
      "stateMutability": "view",
      "type": "function"
    },
    {
      "inputs": [],
      "name": "getLivePolls",
      "outputs": [
        {
          "internalType": "string[]",
          "name": "",
          "type": "string[]"
        },
        {
          "internalType": "string[]",
          "name": "",
          "type": "string[]"
        },
        {
          "internalType": "string[][]",
          "name": "",
          "type": "string[][]"
        }
      ],
      "stateMutability": "view",
      "type": "function"
    },
    {
      "inputs": [
        {
          "internalType": "string",
          "name": "_pollName",
          "type": "string"
        }
      ],
      "name": "getPollDetails",
      "outputs": [
        {
          "internalType": "string",
          "name": "",
          "type": "string"
        },
        {
          "internalType": "string",
          "name": "",
          "type": "string"
        },
        {
          "components": [
            {
              "internalType": "string",
              "name": "name",
              "type": "string"
            },
            {
              "internalType": "address",
              "name": "candidateAddress",
              "type": "address"
            },
            {
              "internalType": "uint256",
              "name": "voteCount",
              "type": "uint256"
            }
          ],
          "internalType": "struct Poll.Candidate[]",
          "name": "",
          "type": "tuple[]"
        }
      ],
      "stateMutability": "view",
      "type": "function"
    },
    {
      "inputs": [
        {
          "internalType": "string",
          "name": "_pollName",
          "type": "string"
        }
      ],
      "name": "getVotes",
      "outputs": [
        {
          "internalType": "uint256[]",
          "name": "",
          "type": "uint256[]"
        }
      ],
      "stateMutability": "view",
      "type": "function"
    },
    {
      "inputs": [
        {
          "internalType": "string",
          "name": "_name",
          "type": "string"
        }
      ],
      "name": "pollExists",
      "outputs": [
        {
          "internalType": "bool",
          "name": "",
          "type": "bool"
        }
      ],
      "stateMutability": "view",
      "type": "function"
    },
    {
      "inputs": [
        {
          "internalType": "uint256",
          "name": "",
          "type": "uint256"
        }
      ],
      "name": "pollNames",
      "outputs": [
        {
          "internalType": "string",
          "name": "",
          "type": "string"
        }
      ],
      "stateMutability": "view",
      "type": "function"
    },
    {
      "inputs": [
        {
          "internalType": "string",
          "name": "",
          "type": "string"
        }
      ],
      "name": "polls",
      "outputs": [
        {
          "internalType": "uint256",
          "name": "startTime",
          "type": "uint256"
        },
        {
          "internalType": "uint256",
          "name": "endTime",
          "type": "uint256"
        },
        {
          "internalType": "uint256",
          "name": "voterCount",
          "type": "uint256"
        },
        {
          "internalType": "string",
          "name": "name",
          "type": "string"
        },
        {
          "internalType": "string",
          "name": "description",
          "type": "string"
        },
        {
          "internalType": "bool",
          "name": "privateVote",
          "type": "bool"
        },
        {
          "internalType": "bool",
          "name": "voteStarted",
          "type": "bool"
        },
        {
          "internalType": "bool",
          "name": "voteEnded",
          "type": "bool"
        }
      ],
      "stateMutability": "view",
      "type": "function"
    },
    {
      "inputs": [
        {
          "internalType": "string",
          "name": "_pollName",
          "type": "string"
        }
      ],
      "name": "tallyVotes",
      "outputs": [
        {
          "internalType": "uint256[]",
          "name": "",
          "type": "uint256[]"
        }
      ],
      "stateMutability": "view",
      "type": "function"
    },
    {
      "inputs": [
        {
          "internalType": "string",
          "name": "_pollName",
          "type": "string"
        },
        {
          "internalType": "address",
          "name": "_candidateAddress",
          "type": "address"
        }
      ],
      "name": "vote",
      "outputs": [],
      "stateMutability": "nonpayable",
      "type": "function"
    },
    {
      "inputs": [],
      "name": "voterCount",
      "outputs": [
        {
          "internalType": "uint256",
          "name": "",
          "type": "uint256"
        }
      ],
      "stateMutability": "view",
      "type": "function"
    },
    {
      "inputs": [
        {
          "internalType": "address",
          "name": "",
          "type": "address"
        }
      ],
      "name": "voters",
      "outputs": [
        {
          "internalType": "bool",
          "name": "voted",
          "type": "bool"
        }
      ],
      "stateMutability": "view",
      "type": "function"
    }
  ],
  "bytecode": "0x608060405234801561001057600080fd5b50336000806101000a81548173ffffffffffffffffffffffffffffffffffffffff021916908373ffffffffffffffffffffffffffffffffffffffff160217905550612c47806100606000396000f3fe608060405234801561001057600080fd5b50600436106100b45760003560e01c80637da32949116100715780637da3294914610191578063805265e5146101af5780638058316a146101df5780638a947a8714610216578063a2e28f2614610246578063a3ec138d14610276576100b4565b80630516278e146100b95780632021e624146100e9578063394a2a221461011b57806340603f821461013b57806342169e48146101575780635a436c0614610175575b600080fd5b6100d360048036038101906100ce9190611917565b6102a6565b6040516100e0919061197b565b60405180910390f35b61010360048036038101906100fe9190611917565b6102e0565b60405161011293929190611bcb565b60405180910390f35b610123610600565b60405161013293929190611e21565b60405180910390f35b6101556004803603810190610150919061206e565b610c69565b005b61015f610f45565b60405161016c919061217a565b60405180910390f35b61018f600480360381019061018a9190612195565b610f4b565b005b610199611300565b6040516101a69190612200565b60405180910390f35b6101c960048036038101906101c49190611917565b611324565b6040516101d691906122ca565b60405180910390f35b6101f960048036038101906101f49190611917565b611489565b60405161020d9897969594939291906122ec565b60405180910390f35b610230600480360381019061022b9190611917565b61161e565b60405161023d91906122ca565b60405180910390f35b610260600480360381019061025b9190612378565b6116e6565b60405161026d91906123a5565b60405180910390f35b610290600480360381019061028b91906123c7565b611792565b60405161029d919061197b565b60405180910390f35b6000806004836040516102b99190612430565b908152602001604051809103902060040180546102d590612476565b905014159050919050565b60608060606102ee846102a6565b61032d576040517f08c379a0000000000000000000000000000000000000000000000000000000008152600401610324906124f3565b60405180910390fd5b60048460405161033d9190612430565b908152602001604051809103902060040160048560405161035e9190612430565b908152602001604051809103902060050160048660405161037f9190612430565b908152602001604051809103902060060182805461039c90612476565b80601f01602080910402602001604051908101604052809291908181526020018280546103c890612476565b80156104155780601f106103ea57610100808354040283529160200191610415565b820191906000526020600020905b8154815290600101906020018083116103f857829003601f168201915b5050505050925081805461042890612476565b80601f016020809104026020016040519081016040528092919081815260200182805461045490612476565b80156104a15780601f10610476576101008083540402835291602001916104a1565b820191906000526020600020905b81548152906001019060200180831161048457829003601f168201915b5050505050915080805480602002602001604051908101604052809291908181526020016000905b828210156105ed57838290600052602060002090600302016040518060600160405290816000820180546104fc90612476565b80601f016020809104026020016040519081016040528092919081815260200182805461052890612476565b80156105755780601f1061054a57610100808354040283529160200191610575565b820191906000526020600020905b81548152906001019060200180831161055857829003601f168201915b505050505081526020016001820160009054906101000a900473ffffffffffffffffffffffffffffffffffffffff1673ffffffffffffffffffffffffffffffffffffffff1673ffffffffffffffffffffffffffffffffffffffff168152602001600282015481525050815260200190600101906104c9565b5050505090509250925092509193909250565b60608060606000805b6005805490508110156106c2574260046005838154811061062d5761062c612513565b5b9060005260206000200160405161064491906125da565b908152602001604051809103902060000154111580156106a1575060046005828154811061067557610674612513565b5b9060005260206000200160405161068c91906125da565b90815260200160405180910390206001015442105b156106b55781806106b190612620565b9250505b8080600101915050610609565b5060008167ffffffffffffffff8111156106df576106de6117ec565b5b60405190808252806020026020018201604052801561071257816020015b60608152602001906001900390816106fd5790505b50905060008267ffffffffffffffff811115610731576107306117ec565b5b60405190808252806020026020018201604052801561076457816020015b606081526020019060019003908161074f5790505b50905060008367ffffffffffffffff811115610783576107826117ec565b5b6040519080825280602002602001820160405280156107b657816020015b60608152602001906001900390816107a15790505b5090506000805b600580549050811015610c5557426004600583815481106107e1576107e0612513565b5b906000526020600020016040516107f891906125da565b90815260200160405180910390206000015411158015610855575060046005828154811061082957610828612513565b5b9060005260206000200160405161084091906125da565b90815260200160405180910390206001015442105b15610c48576004600582815481106108705761086f612513565b5b9060005260206000200160405161088791906125da565b908152602001604051809103902060040180546108a390612476565b80601f01602080910402602001604051908101604052809291908181526020018280546108cf90612476565b801561091c5780601f106108f15761010080835404028352916020019161091c565b820191906000526020600020905b8154815290600101906020018083116108ff57829003601f168201915b505050505085838151811061093457610933612513565b5b602002602001018190525060046005828154811061095557610954612513565b5b9060005260206000200160405161096c91906125da565b9081526020016040518091039020600501805461098890612476565b80601f01602080910402602001604051908101604052809291908181526020018280546109b490612476565b8015610a015780601f106109d657610100808354040283529160200191610a01565b820191906000526020600020905b8154815290600101906020018083116109e457829003601f168201915b5050505050848381518110610a1957610a18612513565b5b60200260200101819052506000600460058381548110610a3c57610a3b612513565b5b90600052602060002001604051610a5391906125da565b90815260200160405180910390206006018054905067ffffffffffffffff811115610a8157610a806117ec565b5b604051908082528060200260200182016040528015610ab457816020015b6060815260200190600190039081610a9f5790505b50905060005b600460058481548110610ad057610acf612513565b5b90600052602060002001604051610ae791906125da565b908152602001604051809103902060060180549050811015610c1857600460058481548110610b1957610b18612513565b5b90600052602060002001604051610b3091906125da565b90815260200160405180910390206006018181548110610b5357610b52612513565b5b90600052602060002090600302016000018054610b6f90612476565b80601f0160208091040260200160405190810160405280929190818152602001828054610b9b90612476565b8015610be85780601f10610bbd57610100808354040283529160200191610be8565b820191906000526020600020905b815481529060010190602001808311610bcb57829003601f168201915b5050505050828281518110610c0057610bff612513565b5b60200260200101819052508080600101915050610aba565b5080848481518110610c2d57610c2c612513565b5b60200260200101819052508280610c4390612620565b935050505b80806001019150506107bd565b508383839750975097505050505050909192565b610c72866102a6565b15610cb2576040517f08c379a0000000000000000000000000000000000000000000000000000000008152600401610ca9906126da565b60405180910390fd5b818111610cf4576040517f08c379a0000000000000000000000000000000000000000000000000000000008152600401610ceb9061276c565b60405180910390fd5b85600487604051610d059190612430565b90815260200160405180910390206004019081610d229190612923565b5084600487604051610d349190612430565b90815260200160405180910390206005019081610d519190612923565b5081600487604051610d639190612430565b90815260200160405180910390206000018190555080600487604051610d899190612430565b90815260200160405180910390206001018190555060005b8451811015610ed057600487604051610dba9190612430565b90815260200160405180910390206006016040518060600160405280878481518110610de957610de8612513565b5b60200260200101518152602001868481518110610e0957610e08612513565b5b602002602001015173ffffffffffffffffffffffffffffffffffffffff168152602001600081525090806001815401808255809150506001900390600052602060002090600302016000909190919091506000820151816000019081610e6f9190612923565b5060208201518160010160006101000a81548173ffffffffffffffffffffffffffffffffffffffff021916908373ffffffffffffffffffffffffffffffffffffffff1602179055506040820151816002015550508080600101915050610da1565b50600586908060018154018082558091505060019003906000526020600020016000909190919091509081610f059190612923565b507f9bf8745d989aef219097b36114b7e27d7f74b56a6e55ab898a6c4e4a0489f75886604051610f3591906123a5565b60405180910390a1505050505050565b60025481565b610f54826102a6565b610f93576040517f08c379a0000000000000000000000000000000000000000000000000000000008152600401610f8a906124f3565b60405180910390fd5b600482604051610fa39190612430565b908152602001604051809103902060000154421015610ff7576040517f08c379a0000000000000000000000000000000000000000000000000000000008152600401610fee90612a41565b60405180910390fd5b6004826040516110079190612430565b908152602001604051809103902060010154421061105a576040517f08c379a000000000000000000000000000000000000000000000000000000000815260040161105190612aad565b60405180910390fd5b60048260405161106a9190612430565b908152602001604051809103902060020160003373ffffffffffffffffffffffffffffffffffffffff1673ffffffffffffffffffffffffffffffffffffffff16815260200190815260200160002060000160009054906101000a900460ff1615611109576040517f08c379a000000000000000000000000000000000000000000000000000000000815260040161110090612b19565b60405180910390fd5b6000805b60048460405161111d9190612430565b9081526020016040518091039020600601805490508110156112ba578273ffffffffffffffffffffffffffffffffffffffff166004856040516111609190612430565b9081526020016040518091039020600601828154811061118357611182612513565b5b906000526020600020906003020160010160009054906101000a900473ffffffffffffffffffffffffffffffffffffffff1673ffffffffffffffffffffffffffffffffffffffff16036112ad576001915060016004856040516111e69190612430565b908152602001604051809103902060020160003373ffffffffffffffffffffffffffffffffffffffff1673ffffffffffffffffffffffffffffffffffffffff16815260200190815260200160002060000160006101000a81548160ff02191690831515021790555060048460405161125e9190612430565b9081526020016040518091039020600601818154811061128157611280612513565b5b906000526020600020906003020160020160008154809291906112a390612620565b91905055506112ba565b808060010191505061110d565b50806112fb576040517f08c379a00000000000000000000000000000000000000000000000000000000081526004016112f290612b85565b60405180910390fd5b505050565b60008054906101000a900473ffffffffffffffffffffffffffffffffffffffff1681565b606061132f826102a6565b61136e576040517f08c379a0000000000000000000000000000000000000000000000000000000008152600401611365906124f3565b60405180910390fd5b60006004836040516113809190612430565b90815260200160405180910390206006018054905067ffffffffffffffff8111156113ae576113ad6117ec565b5b6040519080825280602002602001820160405280156113dc5781602001602082028036833780820191505090505b50905060005b6004846040516113f29190612430565b90815260200160405180910390206006018054905081101561147f5760048460405161141e9190612430565b9081526020016040518091039020600601818154811061144157611440612513565b5b90600052602060002090600302016002015482828151811061146657611465612513565b5b60200260200101818152505080806001019150506113e2565b5080915050919050565b6004818051602081018201805184825260208301602085012081835280955050505050506000915090508060000154908060010154908060030154908060040180546114d490612476565b80601f016020809104026020016040519081016040528092919081815260200182805461150090612476565b801561154d5780601f106115225761010080835404028352916020019161154d565b820191906000526020600020905b81548152906001019060200180831161153057829003601f168201915b50505050509080600501805461156290612476565b80601f016020809104026020016040519081016040528092919081815260200182805461158e90612476565b80156115db5780601f106115b0576101008083540402835291602001916115db565b820191906000526020600020905b8154815290600101906020018083116115be57829003601f168201915b5050505050908060070160009054906101000a900460ff16908060070160019054906101000a900460ff16908060070160029054906101000a900460ff16905088565b6060611629826102a6565b611668576040517f08c379a000000000000000000000000000000000000000000000000000000000815260040161165f906124f3565b60405180910390fd5b6004826040516116789190612430565b908152602001604051809103902060070160029054906101000a900460ff166116d6576040517f08c379a00000000000000000000000000000000000000000000000000000000081526004016116cd90612bf1565b60405180910390fd5b6116df82611324565b9050919050565b600581815481106116f657600080fd5b90600052602060002001600091509050805461171190612476565b80601f016020809104026020016040519081016040528092919081815260200182805461173d90612476565b801561178a5780601f1061175f5761010080835404028352916020019161178a565b820191906000526020600020905b81548152906001019060200180831161176d57829003601f168201915b505050505081565b60016020528060005260406000206000915090508060000160009054906101000a900460ff16905081565b6000604051905090565b600080fd5b600080fd5b600080fd5b600080fd5b6000601f19601f8301169050919050565b7f4e487b7100000000000000000000000000000000000000000000000000000000600052604160045260246000fd5b611824826117db565b810181811067ffffffffffffffff82111715611843576118426117ec565b5b80604052505050565b60006118566117bd565b9050611862828261181b565b919050565b600067ffffffffffffffff821115611882576118816117ec565b5b61188b826117db565b9050602081019050919050565b82818337600083830152505050565b60006118ba6118b584611867565b61184c565b9050828152602081018484840111156118d6576118d56117d6565b5b6118e1848285611898565b509392505050565b600082601f8301126118fe576118fd6117d1565b5b813561190e8482602086016118a7565b91505092915050565b60006020828403121561192d5761192c6117c7565b5b600082013567ffffffffffffffff81111561194b5761194a6117cc565b5b611957848285016118e9565b91505092915050565b60008115159050919050565b61197581611960565b82525050565b6000602082019050611990600083018461196c565b92915050565b600081519050919050565b600082825260208201905092915050565b60005b838110156119d05780820151818401526020810190506119b5565b60008484015250505050565b60006119e782611996565b6119f181856119a1565b9350611a018185602086016119b2565b611a0a816117db565b840191505092915050565b600081519050919050565b600082825260208201905092915050565b6000819050602082019050919050565b600082825260208201905092915050565b6000611a5d82611996565b611a678185611a41565b9350611a778185602086016119b2565b611a80816117db565b840191505092915050565b600073ffffffffffffffffffffffffffffffffffffffff82169050919050565b6000611ab682611a8b565b9050919050565b611ac681611aab565b82525050565b6000819050919050565b611adf81611acc565b82525050565b60006060830160008301518482036000860152611b028282611a52565b9150506020830151611b176020860182611abd565b506040830151611b2a6040860182611ad6565b508091505092915050565b6000611b418383611ae5565b905092915050565b6000602082019050919050565b6000611b6182611a15565b611b6b8185611a20565b935083602082028501611b7d85611a31565b8060005b85811015611bb95784840389528151611b9a8582611b35565b9450611ba583611b49565b925060208a01995050600181019050611b81565b50829750879550505050505092915050565b60006060820190508181036000830152611be581866119dc565b90508181036020830152611bf981856119dc565b90508181036040830152611c0d8184611b56565b9050949350505050565b600081519050919050565b600082825260208201905092915050565b6000819050602082019050919050565b6000611c4f8383611a52565b905092915050565b6000602082019050919050565b6000611c6f82611c17565b611c798185611c22565b935083602082028501611c8b85611c33565b8060005b85811015611cc75784840389528151611ca88582611c43565b9450611cb383611c57565b925060208a01995050600181019050611c8f565b50829750879550505050505092915050565b600081519050919050565b600082825260208201905092915050565b6000819050602082019050919050565b600082825260208201905092915050565b6000611d2182611c17565b611d2b8185611d05565b935083602082028501611d3d85611c33565b8060005b85811015611d795784840389528151611d5a8582611c43565b9450611d6583611c57565b925060208a01995050600181019050611d41565b50829750879550505050505092915050565b6000611d978383611d16565b905092915050565b6000602082019050919050565b6000611db782611cd9565b611dc18185611ce4565b935083602082028501611dd385611cf5565b8060005b85811015611e0f5784840389528151611df08582611d8b565b9450611dfb83611d9f565b925060208a01995050600181019050611dd7565b50829750879550505050505092915050565b60006060820190508181036000830152611e3b8186611c64565b90508181036020830152611e4f8185611c64565b90508181036040830152611e638184611dac565b9050949350505050565b600067ffffffffffffffff821115611e8857611e876117ec565b5b602082029050602081019050919050565b600080fd5b6000611eb1611eac84611e6d565b61184c565b90508083825260208201905060208402830185811115611ed457611ed3611e99565b5b835b81811015611f1b57803567ffffffffffffffff811115611ef957611ef86117d1565b5b808601611f0689826118e9565b85526020850194505050602081019050611ed6565b5050509392505050565b600082601f830112611f3a57611f396117d1565b5b8135611f4a848260208601611e9e565b91505092915050565b600067ffffffffffffffff821115611f6e57611f6d6117ec565b5b602082029050602081019050919050565b611f8881611aab565b8114611f9357600080fd5b50565b600081359050611fa581611f7f565b92915050565b6000611fbe611fb984611f53565b61184c565b90508083825260208201905060208402830185811115611fe157611fe0611e99565b5b835b8181101561200a5780611ff68882611f96565b845260208401935050602081019050611fe3565b5050509392505050565b600082601f830112612029576120286117d1565b5b8135612039848260208601611fab565b91505092915050565b61204b81611acc565b811461205657600080fd5b50565b60008135905061206881612042565b92915050565b60008060008060008060c0878903121561208b5761208a6117c7565b5b600087013567ffffffffffffffff8111156120a9576120a86117cc565b5b6120b589828a016118e9565b965050602087013567ffffffffffffffff8111156120d6576120d56117cc565b5b6120e289828a016118e9565b955050604087013567ffffffffffffffff811115612103576121026117cc565b5b61210f89828a01611f25565b945050606087013567ffffffffffffffff8111156121305761212f6117cc565b5b61213c89828a01612014565b935050608061214d89828a01612059565b92505060a061215e89828a01612059565b9150509295509295509295565b61217481611acc565b82525050565b600060208201905061218f600083018461216b565b92915050565b600080604083850312156121ac576121ab6117c7565b5b600083013567ffffffffffffffff8111156121ca576121c96117cc565b5b6121d6858286016118e9565b92505060206121e785828601611f96565b9150509250929050565b6121fa81611aab565b82525050565b600060208201905061221560008301846121f1565b92915050565b600081519050919050565b600082825260208201905092915050565b6000819050602082019050919050565b60006122538383611ad6565b60208301905092915050565b6000602082019050919050565b60006122778261221b565b6122818185612226565b935061228c83612237565b8060005b838110156122bd5781516122a48882612247565b97506122af8361225f565b925050600181019050612290565b5085935050505092915050565b600060208201905081810360008301526122e4818461226c565b905092915050565b600061010082019050612302600083018b61216b565b61230f602083018a61216b565b61231c604083018961216b565b818103606083015261232e81886119dc565b9050818103608083015261234281876119dc565b905061235160a083018661196c565b61235e60c083018561196c565b61236b60e083018461196c565b9998505050505050505050565b60006020828403121561238e5761238d6117c7565b5b600061239c84828501612059565b91505092915050565b600060208201905081810360008301526123bf81846119dc565b905092915050565b6000602082840312156123dd576123dc6117c7565b5b60006123eb84828501611f96565b91505092915050565b600081905092915050565b600061240a82611996565b61241481856123f4565b93506124248185602086016119b2565b80840191505092915050565b600061243c82846123ff565b915081905092915050565b7f4e487b7100000000000000000000000000000000000000000000000000000000600052602260045260246000fd5b6000600282049050600182168061248e57607f821691505b6020821081036124a1576124a0612447565b5b50919050565b7f506f6c6c20646f6573206e6f742065786973742e000000000000000000000000600082015250565b60006124dd6014836119a1565b91506124e8826124a7565b602082019050919050565b6000602082019050818103600083015261250c816124d0565b9050919050565b7f4e487b7100000000000000000000000000000000000000000000000000000000600052603260045260246000fd5b60008190508160005260206000209050919050565b6000815461256481612476565b61256e81866123f4565b94506001821660008114612589576001811461259e576125d1565b60ff19831686528115158202860193506125d1565b6125a785612542565b60005b838110156125c9578154818901526001820191506020810190506125aa565b838801955050505b50505092915050565b60006125e68284612557565b915081905092915050565b7f4e487b7100000000000000000000000000000000000000000000000000000000600052601160045260246000fd5b600061262b82611acc565b91507fffffffffffffffffffffffffffffffffffffffffffffffffffffffffffffffff820361265d5761265c6125f1565b5b600182019050919050565b7f506f6c6c2077697468207468652073616d65206e616d6520616c72656164792060008201527f6578697374732e00000000000000000000000000000000000000000000000000602082015250565b60006126c46027836119a1565b91506126cf82612668565b604082019050919050565b600060208201905081810360008301526126f3816126b7565b9050919050565b7f456e642074696d65206d7573742062652061667465722073746172742074696d60008201527f652e000000000000000000000000000000000000000000000000000000000000602082015250565b60006127566022836119a1565b9150612761826126fa565b604082019050919050565b6000602082019050818103600083015261278581612749565b9050919050565b60006020601f8301049050919050565b600082821b905092915050565b6000600883026127d97fffffffffffffffffffffffffffffffffffffffffffffffffffffffffffffffff8261279c565b6127e3868361279c565b95508019841693508086168417925050509392505050565b6000819050919050565b600061282061281b61281684611acc565b6127fb565b611acc565b9050919050565b6000819050919050565b61283a83612805565b61284e61284682612827565b8484546127a9565b825550505050565b600090565b612863612856565b61286e818484612831565b505050565b5b818110156128925761288760008261285b565b600181019050612874565b5050565b601f8211156128d7576128a881612542565b6128b18461278c565b810160208510156128c0578190505b6128d46128cc8561278c565b830182612873565b50505b505050565b600082821c905092915050565b60006128fa600019846008026128dc565b1980831691505092915050565b600061291383836128e9565b9150826002028217905092915050565b61292c82611996565b67ffffffffffffffff811115612945576129446117ec565b5b61294f8254612476565b61295a828285612896565b600060209050601f83116001811461298d576000841561297b578287015190505b6129858582612907565b8655506129ed565b601f19841661299b86612542565b60005b828110156129c35784890151825560018201915060208501945060208101905061299e565b868310156129e057848901516129dc601f8916826128e9565b8355505b6001600288020188555050505b505050505050565b7f566f74696e6720686173206e6f742073746172746564207965742e0000000000600082015250565b6000612a2b601b836119a1565b9150612a36826129f5565b602082019050919050565b60006020820190508181036000830152612a5a81612a1e565b9050919050565b7f566f74696e672068617320616c726561647920656e6465642e00000000000000600082015250565b6000612a976019836119a1565b9150612aa282612a61565b602082019050919050565b60006020820190508181036000830152612ac681612a8a565b9050919050565b7f596f75206861766520616c726561647920766f7465642e000000000000000000600082015250565b6000612b036017836119a1565b9150612b0e82612acd565b602082019050919050565b60006020820190508181036000830152612b3281612af6565b9050919050565b7f43616e646964617465206e6f7420666f756e642e000000000000000000000000600082015250565b6000612b6f6014836119a1565b9150612b7a82612b39565b602082019050919050565b60006020820190508181036000830152612b9e81612b62565b9050919050565b7f566f746520686173206e6f7420656e646564207965742e000000000000000000600082015250565b6000612bdb6017836119a1565b9150612be682612ba5565b602082019050919050565b60006020820190508181036000830152612c0a81612bce565b905091905056fea264697066735822122024a14ea5d977d6064707c60a13e877c1e1af5b293d1382e12b0b720744ee369964736f6c63430008180033",
  "linkReferences": {},
  "deployedLinkReferences": {}
}