{
  "_format": "hh-sol-artifact-1",
  "contractName": "Poll",
  "sourceName": "contracts/Poll.sol",
  "abi": [
    {
      "inputs": [],
      "stateMutability": "nonpayable",
      "type": "constructor"
    },
    {
      "anonymous": false,
      "inputs": [
        {
          "indexed": false,
          "internalType": "string",
          "name": "name",
          "type": "string"
        }
      ],
      "name": "PollCreated",
      "type": "event"
    },
    {
      "inputs": [
        {
          "internalType": "string",
          "name": "_name",
          "type": "string"
        },
        {
          "internalType": "string",
          "name": "_description",
          "type": "string"
        },
        {
          "internalType": "string[]",
          "name": "_candidateNames",
          "type": "string[]"
        },
        {
          "internalType": "address[]",
          "name": "_candidateAddresses",
          "type": "address[]"
        },
        {
          "internalType": "uint256",
          "name": "_startTime",
          "type": "uint256"
        },
        {
          "internalType": "uint256",
          "name": "_endTime",
          "type": "uint256"
        }
      ],
      "name": "createPoll",
      "outputs": [],
      "stateMutability": "nonpayable",
      "type": "function"
    },
    {
      "inputs": [],
      "name": "electionManager",
      "outputs": [
        {
          "internalType": "address",
          "name": "",
          "type": "address"
        }
      ],
      "stateMutability": "view",
      "type": "function"
    },
    {
      "inputs": [],
      "name": "getLivePolls",
      "outputs": [
        {
          "internalType": "string[]",
          "name": "",
          "type": "string[]"
        },
        {
          "internalType": "string[]",
          "name": "",
          "type": "string[]"
        },
        {
          "internalType": "string[][]",
          "name": "",
          "type": "string[][]"
        }
      ],
      "stateMutability": "view",
      "type": "function"
    },
    {
      "inputs": [
        {
          "internalType": "string",
          "name": "_pollName",
          "type": "string"
        }
      ],
      "name": "getPollDetails",
      "outputs": [
        {
          "internalType": "string",
          "name": "",
          "type": "string"
        },
        {
          "internalType": "string",
          "name": "",
          "type": "string"
        },
        {
          "components": [
            {
              "internalType": "string",
              "name": "name",
              "type": "string"
            },
            {
              "internalType": "address",
              "name": "candidateAddress",
              "type": "address"
            },
            {
              "internalType": "uint256",
              "name": "voteCount",
              "type": "uint256"
            }
          ],
          "internalType": "struct Poll.Candidate[]",
          "name": "",
          "type": "tuple[]"
        }
      ],
      "stateMutability": "view",
      "type": "function"
    },
    {
      "inputs": [
        {
          "internalType": "string",
          "name": "_pollName",
          "type": "string"
        }
      ],
      "name": "getVotes",
      "outputs": [
        {
          "internalType": "uint256",
          "name": "startTime",
          "type": "uint256"
        },
        {
          "internalType": "uint256",
          "name": "endTime",
          "type": "uint256"
        },
        {
          "internalType": "string",
          "name": "description",
          "type": "string"
        },
        {
          "internalType": "string[]",
          "name": "candidateNames",
          "type": "string[]"
        },
        {
          "internalType": "uint256[]",
          "name": "voteCounts",
          "type": "uint256[]"
        }
      ],
      "stateMutability": "view",
      "type": "function"
    },
    {
      "inputs": [
        {
          "internalType": "string",
          "name": "_name",
          "type": "string"
        }
      ],
      "name": "pollExists",
      "outputs": [
        {
          "internalType": "bool",
          "name": "",
          "type": "bool"
        }
      ],
      "stateMutability": "view",
      "type": "function"
    },
    {
      "inputs": [
        {
          "internalType": "uint256",
          "name": "",
          "type": "uint256"
        }
      ],
      "name": "pollNames",
      "outputs": [
        {
          "internalType": "string",
          "name": "",
          "type": "string"
        }
      ],
      "stateMutability": "view",
      "type": "function"
    },
    {
      "inputs": [
        {
          "internalType": "string",
          "name": "",
          "type": "string"
        }
      ],
      "name": "polls",
      "outputs": [
        {
          "internalType": "uint256",
          "name": "startTime",
          "type": "uint256"
        },
        {
          "internalType": "uint256",
          "name": "endTime",
          "type": "uint256"
        },
        {
          "internalType": "uint256",
          "name": "voterCount",
          "type": "uint256"
        },
        {
          "internalType": "string",
          "name": "name",
          "type": "string"
        },
        {
          "internalType": "string",
          "name": "description",
          "type": "string"
        },
        {
          "internalType": "bool",
          "name": "privateVote",
          "type": "bool"
        },
        {
          "internalType": "bool",
          "name": "voteStarted",
          "type": "bool"
        },
        {
          "internalType": "bool",
          "name": "voteEnded",
          "type": "bool"
        }
      ],
      "stateMutability": "view",
      "type": "function"
    },
    {
      "inputs": [
        {
          "internalType": "string",
          "name": "_pollName",
          "type": "string"
        },
        {
          "internalType": "address",
          "name": "_candidateAddress",
          "type": "address"
        }
      ],
      "name": "vote",
      "outputs": [],
      "stateMutability": "nonpayable",
      "type": "function"
    },
    {
      "inputs": [],
      "name": "voterCount",
      "outputs": [
        {
          "internalType": "uint256",
          "name": "",
          "type": "uint256"
        }
      ],
      "stateMutability": "view",
      "type": "function"
    },
    {
      "inputs": [
        {
          "internalType": "address",
          "name": "",
          "type": "address"
        }
      ],
      "name": "voters",
      "outputs": [
        {
          "internalType": "bool",
          "name": "voted",
          "type": "bool"
        }
      ],
      "stateMutability": "view",
      "type": "function"
    }
  ],
  "bytecode": "0x608060405234801561001057600080fd5b50336000806101000a81548173ffffffffffffffffffffffffffffffffffffffff021916908373ffffffffffffffffffffffffffffffffffffffff160217905550612cac806100606000396000f3fe608060405234801561001057600080fd5b50600436106100a95760003560e01c80635a436c06116100715780635a436c061461016a5780637da3294914610186578063805265e5146101a45780638058316a146101d8578063a2e28f261461020f578063a3ec138d1461023f576100a9565b80630516278e146100ae5780632021e624146100de578063394a2a221461011057806340603f821461013057806342169e481461014c575b600080fd5b6100c860048036038101906100c391906119a2565b61026f565b6040516100d59190611a06565b60405180910390f35b6100f860048036038101906100f391906119a2565b6102a9565b60405161010793929190611c56565b60405180910390f35b6101186105c9565b60405161012793929190611eac565b60405180910390f35b61014a600480360381019061014591906120f9565b610c32565b005b610154610f0e565b6040516101619190612205565b60405180910390f35b610184600480360381019061017f9190612220565b610f14565b005b61018e6112c9565b60405161019b919061228b565b60405180910390f35b6101be60048036038101906101b991906119a2565b6112ed565b6040516101cf959493929190612355565b60405180910390f35b6101f260048036038101906101ed91906119a2565b6115dc565b6040516102069897969594939291906123bd565b60405180910390f35b61022960048036038101906102249190612449565b611771565b6040516102369190612476565b60405180910390f35b61025960048036038101906102549190612498565b61181d565b6040516102669190611a06565b60405180910390f35b6000806004836040516102829190612501565b9081526020016040518091039020600401805461029e90612547565b905014159050919050565b60608060606102b78461026f565b6102f6576040517f08c379a00000000000000000000000000000000000000000000000000000000081526004016102ed906125c4565b60405180910390fd5b6004846040516103069190612501565b90815260200160405180910390206004016004856040516103279190612501565b90815260200160405180910390206005016004866040516103489190612501565b908152602001604051809103902060060182805461036590612547565b80601f016020809104026020016040519081016040528092919081815260200182805461039190612547565b80156103de5780601f106103b3576101008083540402835291602001916103de565b820191906000526020600020905b8154815290600101906020018083116103c157829003601f168201915b505050505092508180546103f190612547565b80601f016020809104026020016040519081016040528092919081815260200182805461041d90612547565b801561046a5780601f1061043f5761010080835404028352916020019161046a565b820191906000526020600020905b81548152906001019060200180831161044d57829003601f168201915b5050505050915080805480602002602001604051908101604052809291908181526020016000905b828210156105b657838290600052602060002090600302016040518060600160405290816000820180546104c590612547565b80601f01602080910402602001604051908101604052809291908181526020018280546104f190612547565b801561053e5780601f106105135761010080835404028352916020019161053e565b820191906000526020600020905b81548152906001019060200180831161052157829003601f168201915b505050505081526020016001820160009054906101000a900473ffffffffffffffffffffffffffffffffffffffff1673ffffffffffffffffffffffffffffffffffffffff1673ffffffffffffffffffffffffffffffffffffffff16815260200160028201548152505081526020019060010190610492565b5050505090509250925092509193909250565b60608060606000805b60058054905081101561068b57426004600583815481106105f6576105f56125e4565b5b9060005260206000200160405161060d91906126ab565b9081526020016040518091039020600001541115801561066a575060046005828154811061063e5761063d6125e4565b5b9060005260206000200160405161065591906126ab565b90815260200160405180910390206001015442105b1561067e57818061067a906126f1565b9250505b80806001019150506105d2565b5060008167ffffffffffffffff8111156106a8576106a7611877565b5b6040519080825280602002602001820160405280156106db57816020015b60608152602001906001900390816106c65790505b50905060008267ffffffffffffffff8111156106fa576106f9611877565b5b60405190808252806020026020018201604052801561072d57816020015b60608152602001906001900390816107185790505b50905060008367ffffffffffffffff81111561074c5761074b611877565b5b60405190808252806020026020018201604052801561077f57816020015b606081526020019060019003908161076a5790505b5090506000805b600580549050811015610c1e57426004600583815481106107aa576107a96125e4565b5b906000526020600020016040516107c191906126ab565b9081526020016040518091039020600001541115801561081e57506004600582815481106107f2576107f16125e4565b5b9060005260206000200160405161080991906126ab565b90815260200160405180910390206001015442105b15610c1157600460058281548110610839576108386125e4565b5b9060005260206000200160405161085091906126ab565b9081526020016040518091039020600401805461086c90612547565b80601f016020809104026020016040519081016040528092919081815260200182805461089890612547565b80156108e55780601f106108ba576101008083540402835291602001916108e5565b820191906000526020600020905b8154815290600101906020018083116108c857829003601f168201915b50505050508583815181106108fd576108fc6125e4565b5b602002602001018190525060046005828154811061091e5761091d6125e4565b5b9060005260206000200160405161093591906126ab565b9081526020016040518091039020600501805461095190612547565b80601f016020809104026020016040519081016040528092919081815260200182805461097d90612547565b80156109ca5780601f1061099f576101008083540402835291602001916109ca565b820191906000526020600020905b8154815290600101906020018083116109ad57829003601f168201915b50505050508483815181106109e2576109e16125e4565b5b60200260200101819052506000600460058381548110610a0557610a046125e4565b5b90600052602060002001604051610a1c91906126ab565b90815260200160405180910390206006018054905067ffffffffffffffff811115610a4a57610a49611877565b5b604051908082528060200260200182016040528015610a7d57816020015b6060815260200190600190039081610a685790505b50905060005b600460058481548110610a9957610a986125e4565b5b90600052602060002001604051610ab091906126ab565b908152602001604051809103902060060180549050811015610be157600460058481548110610ae257610ae16125e4565b5b90600052602060002001604051610af991906126ab565b90815260200160405180910390206006018181548110610b1c57610b1b6125e4565b5b90600052602060002090600302016000018054610b3890612547565b80601f0160208091040260200160405190810160405280929190818152602001828054610b6490612547565b8015610bb15780601f10610b8657610100808354040283529160200191610bb1565b820191906000526020600020905b815481529060010190602001808311610b9457829003601f168201915b5050505050828281518110610bc957610bc86125e4565b5b60200260200101819052508080600101915050610a83565b5080848481518110610bf657610bf56125e4565b5b60200260200101819052508280610c0c906126f1565b935050505b8080600101915050610786565b508383839750975097505050505050909192565b610c3b8661026f565b15610c7b576040517f08c379a0000000000000000000000000000000000000000000000000000000008152600401610c72906127ab565b60405180910390fd5b818111610cbd576040517f08c379a0000000000000000000000000000000000000000000000000000000008152600401610cb49061283d565b60405180910390fd5b85600487604051610cce9190612501565b90815260200160405180910390206004019081610ceb91906129f4565b5084600487604051610cfd9190612501565b90815260200160405180910390206005019081610d1a91906129f4565b5081600487604051610d2c9190612501565b90815260200160405180910390206000018190555080600487604051610d529190612501565b90815260200160405180910390206001018190555060005b8451811015610e9957600487604051610d839190612501565b90815260200160405180910390206006016040518060600160405280878481518110610db257610db16125e4565b5b60200260200101518152602001868481518110610dd257610dd16125e4565b5b602002602001015173ffffffffffffffffffffffffffffffffffffffff168152602001600081525090806001815401808255809150506001900390600052602060002090600302016000909190919091506000820151816000019081610e3891906129f4565b5060208201518160010160006101000a81548173ffffffffffffffffffffffffffffffffffffffff021916908373ffffffffffffffffffffffffffffffffffffffff1602179055506040820151816002015550508080600101915050610d6a565b50600586908060018154018082558091505060019003906000526020600020016000909190919091509081610ece91906129f4565b507f9bf8745d989aef219097b36114b7e27d7f74b56a6e55ab898a6c4e4a0489f75886604051610efe9190612476565b60405180910390a1505050505050565b60025481565b610f1d8261026f565b610f5c576040517f08c379a0000000000000000000000000000000000000000000000000000000008152600401610f53906125c4565b60405180910390fd5b600482604051610f6c9190612501565b908152602001604051809103902060000154421015610fc0576040517f08c379a0000000000000000000000000000000000000000000000000000000008152600401610fb790612b12565b60405180910390fd5b600482604051610fd09190612501565b9081526020016040518091039020600101544210611023576040517f08c379a000000000000000000000000000000000000000000000000000000000815260040161101a90612b7e565b60405180910390fd5b6004826040516110339190612501565b908152602001604051809103902060020160003373ffffffffffffffffffffffffffffffffffffffff1673ffffffffffffffffffffffffffffffffffffffff16815260200190815260200160002060000160009054906101000a900460ff16156110d2576040517f08c379a00000000000000000000000000000000000000000000000000000000081526004016110c990612bea565b60405180910390fd5b6000805b6004846040516110e69190612501565b908152602001604051809103902060060180549050811015611283578273ffffffffffffffffffffffffffffffffffffffff166004856040516111299190612501565b9081526020016040518091039020600601828154811061114c5761114b6125e4565b5b906000526020600020906003020160010160009054906101000a900473ffffffffffffffffffffffffffffffffffffffff1673ffffffffffffffffffffffffffffffffffffffff1603611276576001915060016004856040516111af9190612501565b908152602001604051809103902060020160003373ffffffffffffffffffffffffffffffffffffffff1673ffffffffffffffffffffffffffffffffffffffff16815260200190815260200160002060000160006101000a81548160ff0219169083151502179055506004846040516112279190612501565b9081526020016040518091039020600601818154811061124a576112496125e4565b5b9060005260206000209060030201600201600081548092919061126c906126f1565b9190505550611283565b80806001019150506110d6565b50806112c4576040517f08c379a00000000000000000000000000000000000000000000000000000000081526004016112bb90612c56565b60405180910390fd5b505050565b60008054906101000a900473ffffffffffffffffffffffffffffffffffffffff1681565b60008060608060606112fe8661026f565b61133d576040517f08c379a0000000000000000000000000000000000000000000000000000000008152600401611334906125c4565b60405180910390fd5b600060048760405161134f9190612501565b908152602001604051809103902090506000816006018054905090508067ffffffffffffffff81111561138557611384611877565b5b6040519080825280602002602001820160405280156113b857816020015b60608152602001906001900390816113a35790505b5093508067ffffffffffffffff8111156113d5576113d4611877565b5b6040519080825280602002602001820160405280156114035781602001602082028036833780820191505090505b50925060005b8181101561153357826006018181548110611427576114266125e4565b5b9060005260206000209060030201600001805461144390612547565b80601f016020809104026020016040519081016040528092919081815260200182805461146f90612547565b80156114bc5780601f10611491576101008083540402835291602001916114bc565b820191906000526020600020905b81548152906001019060200180831161149f57829003601f168201915b50505050508582815181106114d4576114d36125e4565b5b60200260200101819052508260060181815481106114f5576114f46125e4565b5b90600052602060002090600302016002015484828151811061151a576115196125e4565b5b6020026020010181815250508080600101915050611409565b50816000015496508160010154955081600501805461155190612547565b80601f016020809104026020016040519081016040528092919081815260200182805461157d90612547565b80156115ca5780601f1061159f576101008083540402835291602001916115ca565b820191906000526020600020905b8154815290600101906020018083116115ad57829003601f168201915b50505050509450505091939590929450565b60048180516020810182018051848252602083016020850120818352809550505050505060009150905080600001549080600101549080600301549080600401805461162790612547565b80601f016020809104026020016040519081016040528092919081815260200182805461165390612547565b80156116a05780601f10611675576101008083540402835291602001916116a0565b820191906000526020600020905b81548152906001019060200180831161168357829003601f168201915b5050505050908060050180546116b590612547565b80601f01602080910402602001604051908101604052809291908181526020018280546116e190612547565b801561172e5780601f106117035761010080835404028352916020019161172e565b820191906000526020600020905b81548152906001019060200180831161171157829003601f168201915b5050505050908060070160009054906101000a900460ff16908060070160019054906101000a900460ff16908060070160029054906101000a900460ff16905088565b6005818154811061178157600080fd5b90600052602060002001600091509050805461179c90612547565b80601f01602080910402602001604051908101604052809291908181526020018280546117c890612547565b80156118155780601f106117ea57610100808354040283529160200191611815565b820191906000526020600020905b8154815290600101906020018083116117f857829003601f168201915b505050505081565b60016020528060005260406000206000915090508060000160009054906101000a900460ff16905081565b6000604051905090565b600080fd5b600080fd5b600080fd5b600080fd5b6000601f19601f8301169050919050565b7f4e487b7100000000000000000000000000000000000000000000000000000000600052604160045260246000fd5b6118af82611866565b810181811067ffffffffffffffff821117156118ce576118cd611877565b5b80604052505050565b60006118e1611848565b90506118ed82826118a6565b919050565b600067ffffffffffffffff82111561190d5761190c611877565b5b61191682611866565b9050602081019050919050565b82818337600083830152505050565b6000611945611940846118f2565b6118d7565b90508281526020810184848401111561196157611960611861565b5b61196c848285611923565b509392505050565b600082601f8301126119895761198861185c565b5b8135611999848260208601611932565b91505092915050565b6000602082840312156119b8576119b7611852565b5b600082013567ffffffffffffffff8111156119d6576119d5611857565b5b6119e284828501611974565b91505092915050565b60008115159050919050565b611a00816119eb565b82525050565b6000602082019050611a1b60008301846119f7565b92915050565b600081519050919050565b600082825260208201905092915050565b60005b83811015611a5b578082015181840152602081019050611a40565b60008484015250505050565b6000611a7282611a21565b611a7c8185611a2c565b9350611a8c818560208601611a3d565b611a9581611866565b840191505092915050565b600081519050919050565b600082825260208201905092915050565b6000819050602082019050919050565b600082825260208201905092915050565b6000611ae882611a21565b611af28185611acc565b9350611b02818560208601611a3d565b611b0b81611866565b840191505092915050565b600073ffffffffffffffffffffffffffffffffffffffff82169050919050565b6000611b4182611b16565b9050919050565b611b5181611b36565b82525050565b6000819050919050565b611b6a81611b57565b82525050565b60006060830160008301518482036000860152611b8d8282611add565b9150506020830151611ba26020860182611b48565b506040830151611bb56040860182611b61565b508091505092915050565b6000611bcc8383611b70565b905092915050565b6000602082019050919050565b6000611bec82611aa0565b611bf68185611aab565b935083602082028501611c0885611abc565b8060005b85811015611c445784840389528151611c258582611bc0565b9450611c3083611bd4565b925060208a01995050600181019050611c0c565b50829750879550505050505092915050565b60006060820190508181036000830152611c708186611a67565b90508181036020830152611c848185611a67565b90508181036040830152611c988184611be1565b9050949350505050565b600081519050919050565b600082825260208201905092915050565b6000819050602082019050919050565b6000611cda8383611add565b905092915050565b6000602082019050919050565b6000611cfa82611ca2565b611d048185611cad565b935083602082028501611d1685611cbe565b8060005b85811015611d525784840389528151611d338582611cce565b9450611d3e83611ce2565b925060208a01995050600181019050611d1a565b50829750879550505050505092915050565b600081519050919050565b600082825260208201905092915050565b6000819050602082019050919050565b600082825260208201905092915050565b6000611dac82611ca2565b611db68185611d90565b935083602082028501611dc885611cbe565b8060005b85811015611e045784840389528151611de58582611cce565b9450611df083611ce2565b925060208a01995050600181019050611dcc565b50829750879550505050505092915050565b6000611e228383611da1565b905092915050565b6000602082019050919050565b6000611e4282611d64565b611e4c8185611d6f565b935083602082028501611e5e85611d80565b8060005b85811015611e9a5784840389528151611e7b8582611e16565b9450611e8683611e2a565b925060208a01995050600181019050611e62565b50829750879550505050505092915050565b60006060820190508181036000830152611ec68186611cef565b90508181036020830152611eda8185611cef565b90508181036040830152611eee8184611e37565b9050949350505050565b600067ffffffffffffffff821115611f1357611f12611877565b5b602082029050602081019050919050565b600080fd5b6000611f3c611f3784611ef8565b6118d7565b90508083825260208201905060208402830185811115611f5f57611f5e611f24565b5b835b81811015611fa657803567ffffffffffffffff811115611f8457611f8361185c565b5b808601611f918982611974565b85526020850194505050602081019050611f61565b5050509392505050565b600082601f830112611fc557611fc461185c565b5b8135611fd5848260208601611f29565b91505092915050565b600067ffffffffffffffff821115611ff957611ff8611877565b5b602082029050602081019050919050565b61201381611b36565b811461201e57600080fd5b50565b6000813590506120308161200a565b92915050565b600061204961204484611fde565b6118d7565b9050808382526020820190506020840283018581111561206c5761206b611f24565b5b835b8181101561209557806120818882612021565b84526020840193505060208101905061206e565b5050509392505050565b600082601f8301126120b4576120b361185c565b5b81356120c4848260208601612036565b91505092915050565b6120d681611b57565b81146120e157600080fd5b50565b6000813590506120f3816120cd565b92915050565b60008060008060008060c0878903121561211657612115611852565b5b600087013567ffffffffffffffff81111561213457612133611857565b5b61214089828a01611974565b965050602087013567ffffffffffffffff81111561216157612160611857565b5b61216d89828a01611974565b955050604087013567ffffffffffffffff81111561218e5761218d611857565b5b61219a89828a01611fb0565b945050606087013567ffffffffffffffff8111156121bb576121ba611857565b5b6121c789828a0161209f565b93505060806121d889828a016120e4565b92505060a06121e989828a016120e4565b9150509295509295509295565b6121ff81611b57565b82525050565b600060208201905061221a60008301846121f6565b92915050565b6000806040838503121561223757612236611852565b5b600083013567ffffffffffffffff81111561225557612254611857565b5b61226185828601611974565b925050602061227285828601612021565b9150509250929050565b61228581611b36565b82525050565b60006020820190506122a0600083018461227c565b92915050565b600081519050919050565b600082825260208201905092915050565b6000819050602082019050919050565b60006122de8383611b61565b60208301905092915050565b6000602082019050919050565b6000612302826122a6565b61230c81856122b1565b9350612317836122c2565b8060005b8381101561234857815161232f88826122d2565b975061233a836122ea565b92505060018101905061231b565b5085935050505092915050565b600060a08201905061236a60008301886121f6565b61237760208301876121f6565b81810360408301526123898186611a67565b9050818103606083015261239d8185611cef565b905081810360808301526123b181846122f7565b90509695505050505050565b6000610100820190506123d3600083018b6121f6565b6123e0602083018a6121f6565b6123ed60408301896121f6565b81810360608301526123ff8188611a67565b905081810360808301526124138187611a67565b905061242260a08301866119f7565b61242f60c08301856119f7565b61243c60e08301846119f7565b9998505050505050505050565b60006020828403121561245f5761245e611852565b5b600061246d848285016120e4565b91505092915050565b600060208201905081810360008301526124908184611a67565b905092915050565b6000602082840312156124ae576124ad611852565b5b60006124bc84828501612021565b91505092915050565b600081905092915050565b60006124db82611a21565b6124e581856124c5565b93506124f5818560208601611a3d565b80840191505092915050565b600061250d82846124d0565b915081905092915050565b7f4e487b7100000000000000000000000000000000000000000000000000000000600052602260045260246000fd5b6000600282049050600182168061255f57607f821691505b60208210810361257257612571612518565b5b50919050565b7f506f6c6c20646f6573206e6f742065786973742e000000000000000000000000600082015250565b60006125ae601483611a2c565b91506125b982612578565b602082019050919050565b600060208201905081810360008301526125dd816125a1565b9050919050565b7f4e487b7100000000000000000000000000000000000000000000000000000000600052603260045260246000fd5b60008190508160005260206000209050919050565b6000815461263581612547565b61263f81866124c5565b9450600182166000811461265a576001811461266f576126a2565b60ff19831686528115158202860193506126a2565b61267885612613565b60005b8381101561269a5781548189015260018201915060208101905061267b565b838801955050505b50505092915050565b60006126b78284612628565b915081905092915050565b7f4e487b7100000000000000000000000000000000000000000000000000000000600052601160045260246000fd5b60006126fc82611b57565b91507fffffffffffffffffffffffffffffffffffffffffffffffffffffffffffffffff820361272e5761272d6126c2565b5b600182019050919050565b7f506f6c6c2077697468207468652073616d65206e616d6520616c72656164792060008201527f6578697374732e00000000000000000000000000000000000000000000000000602082015250565b6000612795602783611a2c565b91506127a082612739565b604082019050919050565b600060208201905081810360008301526127c481612788565b9050919050565b7f456e642074696d65206d7573742062652061667465722073746172742074696d60008201527f652e000000000000000000000000000000000000000000000000000000000000602082015250565b6000612827602283611a2c565b9150612832826127cb565b604082019050919050565b600060208201905081810360008301526128568161281a565b9050919050565b60006020601f8301049050919050565b600082821b905092915050565b6000600883026128aa7fffffffffffffffffffffffffffffffffffffffffffffffffffffffffffffffff8261286d565b6128b4868361286d565b95508019841693508086168417925050509392505050565b6000819050919050565b60006128f16128ec6128e784611b57565b6128cc565b611b57565b9050919050565b6000819050919050565b61290b836128d6565b61291f612917826128f8565b84845461287a565b825550505050565b600090565b612934612927565b61293f818484612902565b505050565b5b818110156129635761295860008261292c565b600181019050612945565b5050565b601f8211156129a85761297981612613565b6129828461285d565b81016020851015612991578190505b6129a561299d8561285d565b830182612944565b50505b505050565b600082821c905092915050565b60006129cb600019846008026129ad565b1980831691505092915050565b60006129e483836129ba565b9150826002028217905092915050565b6129fd82611a21565b67ffffffffffffffff811115612a1657612a15611877565b5b612a208254612547565b612a2b828285612967565b600060209050601f831160018114612a5e5760008415612a4c578287015190505b612a5685826129d8565b865550612abe565b601f198416612a6c86612613565b60005b82811015612a9457848901518255600182019150602085019450602081019050612a6f565b86831015612ab15784890151612aad601f8916826129ba565b8355505b6001600288020188555050505b505050505050565b7f566f74696e6720686173206e6f742073746172746564207965742e0000000000600082015250565b6000612afc601b83611a2c565b9150612b0782612ac6565b602082019050919050565b60006020820190508181036000830152612b2b81612aef565b9050919050565b7f566f74696e672068617320616c726561647920656e6465642e00000000000000600082015250565b6000612b68601983611a2c565b9150612b7382612b32565b602082019050919050565b60006020820190508181036000830152612b9781612b5b565b9050919050565b7f596f75206861766520616c726561647920766f7465642e000000000000000000600082015250565b6000612bd4601783611a2c565b9150612bdf82612b9e565b602082019050919050565b60006020820190508181036000830152612c0381612bc7565b9050919050565b7f43616e646964617465206e6f7420666f756e642e000000000000000000000000600082015250565b6000612c40601483611a2c565b9150612c4b82612c0a565b602082019050919050565b60006020820190508181036000830152612c6f81612c33565b905091905056fea2646970667358221220acb884bffea6a0e0c9f7ec0afc4dbc9bccf14a26338db4eec83307e691a0b98764736f6c63430008180033",
  "linkReferences": {},
  "deployedLinkReferences": {}
}